{
  "contractName": "Lottery",
  "abi": [
    {
      "inputs": [],
      "payable": false,
      "stateMutability": "nonpayable",
      "type": "constructor"
    },
    {
      "constant": true,
      "inputs": [],
      "name": "manager",
      "outputs": [
        {
          "internalType": "address",
          "name": "",
          "type": "address"
        }
      ],
      "payable": false,
      "stateMutability": "view",
      "type": "function"
    },
    {
      "constant": true,
      "inputs": [
        {
          "internalType": "uint256",
          "name": "",
          "type": "uint256"
        }
      ],
      "name": "players",
      "outputs": [
        {
          "internalType": "address payable",
          "name": "",
          "type": "address"
        }
      ],
      "payable": false,
      "stateMutability": "view",
      "type": "function"
    },
    {
      "constant": true,
      "inputs": [],
      "name": "winnerAddress",
      "outputs": [
        {
          "internalType": "address payable",
          "name": "",
          "type": "address"
        }
      ],
      "payable": false,
      "stateMutability": "view",
      "type": "function"
    },
    {
      "constant": false,
      "inputs": [],
      "name": "register",
      "outputs": [],
      "payable": true,
      "stateMutability": "payable",
      "type": "function"
    },
    {
      "constant": false,
      "inputs": [],
      "name": "chooseWinner",
      "outputs": [],
      "payable": false,
      "stateMutability": "nonpayable",
      "type": "function"
    },
    {
      "constant": true,
      "inputs": [],
      "name": "getPlayers",
      "outputs": [
        {
          "internalType": "address payable[]",
          "name": "",
          "type": "address[]"
        }
      ],
      "payable": false,
      "stateMutability": "view",
      "type": "function"
    }
  ],
  "bytecode": "0x608060405234801561001057600080fd5b50336000806101000a81548173ffffffffffffffffffffffffffffffffffffffff021916908373ffffffffffffffffffffffffffffffffffffffff160217905550610a3c806100606000396000f3fe6080604052600436106100555760003560e01c80631aa3a0081461005a578063481c6a75146100645780638b5b9ccc1461008f578063cd38aa87146100ba578063ed7a4e0b146100d1578063f71d96cb146100fc575b600080fd5b610062610139565b005b34801561007057600080fd5b506100796101eb565b6040516100869190610816565b60405180910390f35b34801561009b57600080fd5b506100a4610210565b6040516100b1919061084c565b60405180910390f35b3480156100c657600080fd5b506100cf61029e565b005b3480156100dd57600080fd5b506100e6610487565b6040516100f39190610831565b60405180910390f35b34801561010857600080fd5b50610123600480360361011e91908101906105ff565b6104ad565b6040516101309190610831565b60405180910390f35b67016345785d8a00003411610183576040517f08c379a000000000000000000000000000000000000000000000000000000000815260040161017a9061088e565b60405180910390fd5b60013390806001815401808255809150509060018203906000526020600020016000909192909190916101000a81548173ffffffffffffffffffffffffffffffffffffffff021916908373ffffffffffffffffffffffffffffffffffffffff16021790555050565b6000809054906101000a900473ffffffffffffffffffffffffffffffffffffffff1681565b6060600180548060200260200160405190810160405280929190818152602001828054801561029457602002820191906000526020600020905b8160009054906101000a900473ffffffffffffffffffffffffffffffffffffffff1673ffffffffffffffffffffffffffffffffffffffff168152602001906001019080831161024a575b5050505050905090565b6000809054906101000a900473ffffffffffffffffffffffffffffffffffffffff1673ffffffffffffffffffffffffffffffffffffffff163373ffffffffffffffffffffffffffffffffffffffff161461032d576040517f08c379a00000000000000000000000000000000000000000000000000000000081526004016103249061086e565b60405180910390fd5b600060018054905061033d6104e9565b8161034457fe5b0690506001818154811061035457fe5b9060005260206000200160009054906101000a900473ffffffffffffffffffffffffffffffffffffffff1673ffffffffffffffffffffffffffffffffffffffff166108fc479081150290604051600060405180830381858888f193505050501580156103c4573d6000803e3d6000fd5b50600181815481106103d257fe5b9060005260206000200160009054906101000a900473ffffffffffffffffffffffffffffffffffffffff16600260006101000a81548173ffffffffffffffffffffffffffffffffffffffff021916908373ffffffffffffffffffffffffffffffffffffffff160217905550600060405190808252806020026020018201604052801561046d5781602001602082028038833980820191505090505b506001908051906020019061048392919061051d565b5050565b600260009054906101000a900473ffffffffffffffffffffffffffffffffffffffff1681565b600181815481106104ba57fe5b906000526020600020016000915054906101000a900473ffffffffffffffffffffffffffffffffffffffff1681565b60004460016040516020016104ff9291906107ee565b6040516020818303038152906040528051906020012060001c905090565b828054828255906000526020600020908101928215610596579160200282015b828111156105955782518260006101000a81548173ffffffffffffffffffffffffffffffffffffffff021916908373ffffffffffffffffffffffffffffffffffffffff1602179055509160200191906001019061053d565b5b5090506105a391906105a7565b5090565b6105e791905b808211156105e357600081816101000a81549073ffffffffffffffffffffffffffffffffffffffff0219169055506001016105ad565b5090565b90565b6000813590506105f9816109e2565b92915050565b60006020828403121561061157600080fd5b600061061f848285016105ea565b91505092915050565b60006106348383610658565b60208301905092915050565b600061064c8383610676565b60208301905092915050565b61066181610962565b82525050565b61067081610962565b82525050565b61067f81610962565b82525050565b61068e81610950565b82525050565b600061069f826108d3565b6106a98185610903565b93506106b4836108ae565b8060005b838110156106e55781516106cc8882610628565b97506106d7836108e9565b9250506001810190506106b8565b5085935050505092915050565b60006106fd826108de565b6107078185610914565b9350610712836108be565b8060005b8381101561074a57610727826109c2565b6107318882610640565b975061073c836108f6565b925050600181019050610716565b5085935050505092915050565b600061076460118361091f565b91507f4d7573742062652061204d616e616765720000000000000000000000000000006000830152602082019050919050565b60006107a460198361091f565b91507f4e6f7420656e6f7567682065746865722070726f7669646564000000000000006000830152602082019050919050565b6107e86107e382610994565b6109b8565b82525050565b60006107fa82856107d7565b60208201915061080a82846106f2565b91508190509392505050565b600060208201905061082b6000830184610685565b92915050565b60006020820190506108466000830184610667565b92915050565b600060208201905081810360008301526108668184610694565b905092915050565b6000602082019050818103600083015261088781610757565b9050919050565b600060208201905081810360008301526108a781610797565b9050919050565b6000819050602082019050919050565b60008190508160005260206000209050919050565b600081519050919050565b600081549050919050565b6000602082019050919050565b6000600182019050919050565b600082825260208201905092915050565b600081905092915050565b600082825260208201905092915050565b600073ffffffffffffffffffffffffffffffffffffffff82169050919050565b600061095b82610974565b9050919050565b600061096d82610974565b9050919050565b600073ffffffffffffffffffffffffffffffffffffffff82169050919050565b6000819050919050565b60006109b16109ac836109d5565b610930565b9050919050565b6000819050919050565b60006109ce825461099e565b9050919050565b60008160001c9050919050565b6109eb81610994565b81146109f657600080fd5b5056fea365627a7a723158209bcc0c59cebc313fdc7d52a679c371358cef52dade7921ba9273b0f8a0bc672a6c6578706572696d656e74616cf564736f6c63430005100040",
  "source": "pragma solidity >=0.4.21 <0.7.0;\r\npragma experimental ABIEncoderV2;\r\n\r\ncontract Lottery {\r\n    address public manager;\r\n    address payable[] public players;\r\n    address payable public winnerAddress;\r\n\r\n    constructor() public {\r\n        manager = msg.sender;\r\n    }\r\n\r\n    modifier onlyOwner() {\r\n        require(msg.sender == manager, \"Must be a Manager\");\r\n        _;\r\n    }\r\n\r\n    function register() public payable {\r\n        require(msg.value > 0.1 ether, \"Not enough ether provided\");\r\n        players.push(msg.sender);\r\n    }\r\n\r\n    function chooseWinner() public onlyOwner {\r\n        uint256 index = random() % players.length;\r\n        //Transfer is inbuilt method to transfer money.\r\n        //Balance is contract property to hold current balance/money\r\n        players[index].transfer(address(this).balance);\r\n        winnerAddress = players[index];\r\n        players = new address payable[](0); //reset players address array\r\n    }\r\n\r\n    function getPlayers() public view returns (address payable[] memory) {\r\n        return players;\r\n    }\r\n\r\n    function random() private view returns (uint256) {\r\n        return uint256(keccak256(abi.encodePacked(block.difficulty, players)));\r\n    }\r\n}\r\n",
  "sourcePath": "C:\\Users\\sshankariya\\Desktop\\DAPP-Examples\\DAPP-13\\contracts\\Lottery.sol",
  "compiler": {
    "name": "solc",
    "version": "0.5.16+commit.9c3226ce.Emscripten.clang"
  },
  "schemaVersion": "3.1.0",
  "updatedAt": "2020-08-06T16:47:19.645Z",
  "networkType": "ethereum",
  "devdoc": {
    "methods": {}
  },
  "userdoc": {
    "methods": {}
  }
}