{
  "contractName": "Lottery",
  "abi": [
    {
      "inputs": [],
      "payable": false,
      "stateMutability": "nonpayable",
      "type": "constructor"
    },
    {
      "constant": true,
      "inputs": [],
      "name": "manager",
      "outputs": [
        {
          "internalType": "address",
          "name": "",
          "type": "address"
        }
      ],
      "payable": false,
      "stateMutability": "view",
      "type": "function"
    },
    {
      "constant": true,
      "inputs": [
        {
          "internalType": "uint256",
          "name": "",
          "type": "uint256"
        }
      ],
      "name": "players",
      "outputs": [
        {
          "internalType": "address payable",
          "name": "",
          "type": "address"
        }
      ],
      "payable": false,
      "stateMutability": "view",
      "type": "function"
    },
    {
      "constant": false,
      "inputs": [],
      "name": "register",
      "outputs": [],
      "payable": true,
      "stateMutability": "payable",
      "type": "function"
    },
    {
      "constant": false,
      "inputs": [],
      "name": "chooseWinner",
      "outputs": [],
      "payable": false,
      "stateMutability": "nonpayable",
      "type": "function"
    },
    {
      "constant": true,
      "inputs": [],
      "name": "getPlayers",
      "outputs": [
        {
          "internalType": "address payable[]",
          "name": "",
          "type": "address[]"
        }
      ],
      "payable": false,
      "stateMutability": "view",
      "type": "function"
    }
  ],
  "bytecode": "0x608060405234801561001057600080fd5b50336000806101000a81548173ffffffffffffffffffffffffffffffffffffffff021916908373ffffffffffffffffffffffffffffffffffffffff160217905550610968806100606000396000f3fe60806040526004361061004a5760003560e01c80631aa3a0081461004f578063481c6a75146100595780638b5b9ccc14610084578063cd38aa87146100af578063f71d96cb146100c6575b600080fd5b610057610103565b005b34801561006557600080fd5b5061006e6101b5565b60405161007b9190610742565b60405180910390f35b34801561009057600080fd5b506100996101da565b6040516100a69190610778565b60405180910390f35b3480156100bb57600080fd5b506100c4610268565b005b3480156100d257600080fd5b506100ed60048036036100e8919081019061052b565b6103d9565b6040516100fa919061075d565b60405180910390f35b67016345785d8a0000341161014d576040517f08c379a0000000000000000000000000000000000000000000000000000000008152600401610144906107ba565b60405180910390fd5b60013390806001815401808255809150509060018203906000526020600020016000909192909190916101000a81548173ffffffffffffffffffffffffffffffffffffffff021916908373ffffffffffffffffffffffffffffffffffffffff16021790555050565b6000809054906101000a900473ffffffffffffffffffffffffffffffffffffffff1681565b6060600180548060200260200160405190810160405280929190818152602001828054801561025e57602002820191906000526020600020905b8160009054906101000a900473ffffffffffffffffffffffffffffffffffffffff1673ffffffffffffffffffffffffffffffffffffffff1681526020019060010190808311610214575b5050505050905090565b6000809054906101000a900473ffffffffffffffffffffffffffffffffffffffff1673ffffffffffffffffffffffffffffffffffffffff163373ffffffffffffffffffffffffffffffffffffffff16146102f7576040517f08c379a00000000000000000000000000000000000000000000000000000000081526004016102ee9061079a565b60405180910390fd5b6000600180549050610307610415565b8161030e57fe5b0690506001818154811061031e57fe5b9060005260206000200160009054906101000a900473ffffffffffffffffffffffffffffffffffffffff1673ffffffffffffffffffffffffffffffffffffffff166108fc479081150290604051600060405180830381858888f1935050505015801561038e573d6000803e3d6000fd5b5060006040519080825280602002602001820160405280156103bf5781602001602082028038833980820191505090505b50600190805190602001906103d5929190610449565b5050565b600181815481106103e657fe5b906000526020600020016000915054906101000a900473ffffffffffffffffffffffffffffffffffffffff1681565b600044600160405160200161042b92919061071a565b6040516020818303038152906040528051906020012060001c905090565b8280548282559060005260206000209081019282156104c2579160200282015b828111156104c15782518260006101000a81548173ffffffffffffffffffffffffffffffffffffffff021916908373ffffffffffffffffffffffffffffffffffffffff16021790555091602001919060010190610469565b5b5090506104cf91906104d3565b5090565b61051391905b8082111561050f57600081816101000a81549073ffffffffffffffffffffffffffffffffffffffff0219169055506001016104d9565b5090565b90565b6000813590506105258161090e565b92915050565b60006020828403121561053d57600080fd5b600061054b84828501610516565b91505092915050565b60006105608383610584565b60208301905092915050565b600061057883836105a2565b60208301905092915050565b61058d8161088e565b82525050565b61059c8161088e565b82525050565b6105ab8161088e565b82525050565b6105ba8161087c565b82525050565b60006105cb826107ff565b6105d5818561082f565b93506105e0836107da565b8060005b838110156106115781516105f88882610554565b975061060383610815565b9250506001810190506105e4565b5085935050505092915050565b60006106298261080a565b6106338185610840565b935061063e836107ea565b8060005b8381101561067657610653826108ee565b61065d888261056c565b975061066883610822565b925050600181019050610642565b5085935050505092915050565b600061069060118361084b565b91507f4d7573742062652061204d616e616765720000000000000000000000000000006000830152602082019050919050565b60006106d060198361084b565b91507f4e6f7420656e6f7567682065746865722070726f7669646564000000000000006000830152602082019050919050565b61071461070f826108c0565b6108e4565b82525050565b60006107268285610703565b602082019150610736828461061e565b91508190509392505050565b600060208201905061075760008301846105b1565b92915050565b60006020820190506107726000830184610593565b92915050565b6000602082019050818103600083015261079281846105c0565b905092915050565b600060208201905081810360008301526107b381610683565b9050919050565b600060208201905081810360008301526107d3816106c3565b9050919050565b6000819050602082019050919050565b60008190508160005260206000209050919050565b600081519050919050565b600081549050919050565b6000602082019050919050565b6000600182019050919050565b600082825260208201905092915050565b600081905092915050565b600082825260208201905092915050565b600073ffffffffffffffffffffffffffffffffffffffff82169050919050565b6000610887826108a0565b9050919050565b6000610899826108a0565b9050919050565b600073ffffffffffffffffffffffffffffffffffffffff82169050919050565b6000819050919050565b60006108dd6108d883610901565b61085c565b9050919050565b6000819050919050565b60006108fa82546108ca565b9050919050565b60008160001c9050919050565b610917816108c0565b811461092257600080fd5b5056fea365627a7a72315820d193b648e554a061d49295c7b432b02f53d1357b9db8a2db547ea3609e1600db6c6578706572696d656e74616cf564736f6c63430005100040",
  "source": "pragma solidity >=0.4.21 <0.7.0;\r\npragma experimental ABIEncoderV2;\r\n\r\ncontract Lottery {\r\n    address public manager;\r\n    address payable[] public players;\r\n\r\n    constructor() public {\r\n        manager = msg.sender;\r\n    }\r\n\r\n    modifier onlyOwner() {\r\n        require(msg.sender == manager, \"Must be a Manager\");\r\n        _;\r\n    }\r\n\r\n    function register() public payable {\r\n        require(msg.value > 0.1 ether, \"Not enough ether provided\");\r\n        players.push(msg.sender);\r\n    }\r\n\r\n    function chooseWinner() public onlyOwner {\r\n        uint256 index = random() % players.length;\r\n        //Transfer is inbuilt method to transfer money.\r\n        //Balance is contract property to hold current balance/money\r\n        players[index].transfer(address(this).balance);\r\n        players = new address payable[](0); //reset players address array\r\n    }\r\n\r\n    function getPlayers() public view returns (address payable[] memory) {\r\n        return players;\r\n    }\r\n\r\n    function random() private view returns (uint256) {\r\n        return uint256(keccak256(abi.encodePacked(block.difficulty, players)));\r\n    }\r\n}\r\n",
  "sourcePath": "C:\\Users\\sshankariya\\Desktop\\DAPP-Examples\\DAPP-13\\contracts\\Lottery.sol",
  "compiler": {
    "name": "solc",
    "version": "0.5.16+commit.9c3226ce.Emscripten.clang"
  },
  "schemaVersion": "3.1.0",
  "updatedAt": "2020-08-05T20:57:29.044Z",
  "networkType": "ethereum",
  "devdoc": {
    "methods": {}
  },
  "userdoc": {
    "methods": {}
  }
}